{
  "_format": "hh-sol-artifact-1",
  "contractName": "HideIt",
  "sourceName": "contracts/HideIt.sol",
  "abi": [
    {
      "inputs": [],
      "stateMutability": "nonpayable",
      "type": "constructor"
    },
    {
      "anonymous": false,
      "inputs": [
        {
          "components": [
            {
              "internalType": "string",
              "name": "content",
              "type": "string"
            },
            {
              "internalType": "string",
              "name": "message",
              "type": "string"
            },
            {
              "internalType": "string",
              "name": "messageForFuture",
              "type": "string"
            },
            {
              "internalType": "uint256",
              "name": "fine",
              "type": "uint256"
            },
            {
              "internalType": "bool",
              "name": "isPrivate",
              "type": "bool"
            },
            {
              "internalType": "bytes32",
              "name": "messageId",
              "type": "bytes32"
            },
            {
              "internalType": "address",
              "name": "owner",
              "type": "address"
            }
          ],
          "indexed": false,
          "internalType": "struct Message",
          "name": "",
          "type": "tuple"
        }
      ],
      "name": "ReturnMessage",
      "type": "event"
    },
    {
      "anonymous": false,
      "inputs": [
        {
          "indexed": false,
          "internalType": "bytes32",
          "name": "",
          "type": "bytes32"
        }
      ],
      "name": "ReturnSaveMessageId",
      "type": "event"
    },
    {
      "inputs": [
        {
          "internalType": "bytes32",
          "name": "_messageId",
          "type": "bytes32"
        }
      ],
      "name": "getMessage",
      "outputs": [],
      "stateMutability": "payable",
      "type": "function"
    },
    {
      "inputs": [
        {
          "internalType": "bytes32",
          "name": "_messageId",
          "type": "bytes32"
        }
      ],
      "name": "getMessageContentFromId",
      "outputs": [
        {
          "components": [
            {
              "internalType": "string",
              "name": "message",
              "type": "string"
            },
            {
              "internalType": "uint256",
              "name": "fine",
              "type": "uint256"
            },
            {
              "internalType": "bool",
              "name": "isPrivate",
              "type": "bool"
            },
            {
              "internalType": "bytes32",
              "name": "messageId",
              "type": "bytes32"
            },
            {
              "internalType": "address",
              "name": "owner",
              "type": "address"
            }
          ],
          "internalType": "struct MessageContent",
          "name": "",
          "type": "tuple"
        }
      ],
      "stateMutability": "view",
      "type": "function"
    },
    {
      "inputs": [],
      "name": "getMessageFromAddress",
      "outputs": [
        {
          "internalType": "bytes32[]",
          "name": "",
          "type": "bytes32[]"
        }
      ],
      "stateMutability": "view",
      "type": "function"
    },
    {
      "inputs": [
        {
          "internalType": "string",
          "name": "_content",
          "type": "string"
        },
        {
          "internalType": "string",
          "name": "_message",
          "type": "string"
        },
        {
          "internalType": "string",
          "name": "_messageForFuture",
          "type": "string"
        },
        {
          "internalType": "uint256",
          "name": "_fine",
          "type": "uint256"
        },
        {
          "internalType": "bool",
          "name": "_isPrivate",
          "type": "bool"
        }
      ],
      "name": "saveMessage",
      "outputs": [],
      "stateMutability": "nonpayable",
      "type": "function"
    },
    {
      "inputs": [],
      "name": "test",
      "outputs": [
        {
          "internalType": "bytes32",
          "name": "",
          "type": "bytes32"
        }
      ],
      "stateMutability": "payable",
      "type": "function"
    },
    {
      "inputs": [],
      "name": "withdraw",
      "outputs": [],
      "stateMutability": "payable",
      "type": "function"
    }
  ],
  "bytecode": "0x6080604052600060025534801561001557600080fd5b5033600360006101000a81548173ffffffffffffffffffffffffffffffffffffffff021916908373ffffffffffffffffffffffffffffffffffffffff160217905550611c3e806100666000396000f3fe6080604052600436106100555760003560e01c80630139a2211461005a5780630f05f462146100765780633ccfd60b1461009f57806351af8760146100a9578063f4680ada146100d4578063f8a8fd6d14610111575b600080fd5b610074600480360381019061006f91906113b1565b61012f565b005b34801561008257600080fd5b5061009d600480360381019061009891906113de565b610baf565b005b6100a7610db5565b005b3480156100b557600080fd5b506100be610e55565b6040516100cb91906117dc565b60405180910390f35b3480156100e057600080fd5b506100fb60048036038101906100f691906113b1565b610ee9565b6040516101089190611839565b60405180910390f35b6101196111a9565b60405161012691906117fe565b60405180910390f35b806000600160008381526020019081526020016000206040518060e0016040529081600082018054610160906119d8565b80601f016020809104026020016040519081016040528092919081815260200182805461018c906119d8565b80156101d95780601f106101ae576101008083540402835291602001916101d9565b820191906000526020600020905b8154815290600101906020018083116101bc57829003601f168201915b505050505081526020016001820180546101f2906119d8565b80601f016020809104026020016040519081016040528092919081815260200182805461021e906119d8565b801561026b5780601f106102405761010080835404028352916020019161026b565b820191906000526020600020905b81548152906001019060200180831161024e57829003601f168201915b50505050508152602001600282018054610284906119d8565b80601f01602080910402602001604051908101604052809291908181526020018280546102b0906119d8565b80156102fd5780601f106102d2576101008083540402835291602001916102fd565b820191906000526020600020905b8154815290600101906020018083116102e057829003601f168201915b50505050508152602001600382015481526020016004820160009054906101000a900460ff16151515158152602001600582015481526020016006820160009054906101000a900473ffffffffffffffffffffffffffffffffffffffff1673ffffffffffffffffffffffffffffffffffffffff1673ffffffffffffffffffffffffffffffffffffffff16815250509050806060015134101561039e57600080fd5b826000600160008381526020019081526020016000206040518060e00160405290816000820180546103cf906119d8565b80601f01602080910402602001604051908101604052809291908181526020018280546103fb906119d8565b80156104485780601f1061041d57610100808354040283529160200191610448565b820191906000526020600020905b81548152906001019060200180831161042b57829003601f168201915b50505050508152602001600182018054610461906119d8565b80601f016020809104026020016040519081016040528092919081815260200182805461048d906119d8565b80156104da5780601f106104af576101008083540402835291602001916104da565b820191906000526020600020905b8154815290600101906020018083116104bd57829003601f168201915b505050505081526020016002820180546104f3906119d8565b80601f016020809104026020016040519081016040528092919081815260200182805461051f906119d8565b801561056c5780601f106105415761010080835404028352916020019161056c565b820191906000526020600020905b81548152906001019060200180831161054f57829003601f168201915b50505050508152602001600382015481526020016004820160009054906101000a900460ff16151515158152602001600582015481526020016006820160009054906101000a900473ffffffffffffffffffffffffffffffffffffffff1673ffffffffffffffffffffffffffffffffffffffff1673ffffffffffffffffffffffffffffffffffffffff16815250509050806080015115610912578060c0015173ffffffffffffffffffffffffffffffffffffffff163373ffffffffffffffffffffffffffffffffffffffff1614610678576040517f08c379a000000000000000000000000000000000000000000000000000000000815260040161066f90611819565b60405180910390fd5b6000600160008781526020019081526020016000206040518060e00160405290816000820180546106a8906119d8565b80601f01602080910402602001604051908101604052809291908181526020018280546106d4906119d8565b80156107215780601f106106f657610100808354040283529160200191610721565b820191906000526020600020905b81548152906001019060200180831161070457829003601f168201915b5050505050815260200160018201805461073a906119d8565b80601f0160208091040260200160405190810160405280929190818152602001828054610766906119d8565b80156107b35780601f10610788576101008083540402835291602001916107b3565b820191906000526020600020905b81548152906001019060200180831161079657829003601f168201915b505050505081526020016002820180546107cc906119d8565b80601f01602080910402602001604051908101604052809291908181526020018280546107f8906119d8565b80156108455780601f1061081a57610100808354040283529160200191610845565b820191906000526020600020905b81548152906001019060200180831161082857829003601f168201915b50505050508152602001600382015481526020016004820160009054906101000a900460ff16151515158152602001600582015481526020016006820160009054906101000a900473ffffffffffffffffffffffffffffffffffffffff1673ffffffffffffffffffffffffffffffffffffffff1673ffffffffffffffffffffffffffffffffffffffff168152505090507f2db62802210ffa8eb00761f520543f05053f987accc6b8d548cf082a34765acc81604051610904919061185b565b60405180910390a150610ba8565b6000600160008781526020019081526020016000206040518060e0016040529081600082018054610942906119d8565b80601f016020809104026020016040519081016040528092919081815260200182805461096e906119d8565b80156109bb5780601f10610990576101008083540402835291602001916109bb565b820191906000526020600020905b81548152906001019060200180831161099e57829003601f168201915b505050505081526020016001820180546109d4906119d8565b80601f0160208091040260200160405190810160405280929190818152602001828054610a00906119d8565b8015610a4d5780601f10610a2257610100808354040283529160200191610a4d565b820191906000526020600020905b815481529060010190602001808311610a3057829003601f168201915b50505050508152602001600282018054610a66906119d8565b80601f0160208091040260200160405190810160405280929190818152602001828054610a92906119d8565b8015610adf5780601f10610ab457610100808354040283529160200191610adf565b820191906000526020600020905b815481529060010190602001808311610ac257829003601f168201915b50505050508152602001600382015481526020016004820160009054906101000a900460ff16151515158152602001600582015481526020016006820160009054906101000a900473ffffffffffffffffffffffffffffffffffffffff1673ffffffffffffffffffffffffffffffffffffffff1673ffffffffffffffffffffffffffffffffffffffff168152505090507f2db62802210ffa8eb00761f520543f05053f987accc6b8d548cf082a34765acc81604051610b9e919061185b565b60405180910390a1505b5050505050565b60026000815480929190610bc290611a3b565b91905055506000610bd686600254336111df565b905060006040518060e0016040528088815260200187815260200186815260200185815260200184151581526020018381526020013373ffffffffffffffffffffffffffffffffffffffff1681525090506000803373ffffffffffffffffffffffffffffffffffffffff1673ffffffffffffffffffffffffffffffffffffffff16815260200190815260200160002082908060018154018082558091505060019003906000526020600020016000909190919091505580600160008481526020019081526020016000206000820151816000019080519060200190610cbc929190611215565b506020820151816001019080519060200190610cd9929190611215565b506040820151816002019080519060200190610cf6929190611215565b506060820151816003015560808201518160040160006101000a81548160ff02191690831515021790555060a0820151816005015560c08201518160060160006101000a81548173ffffffffffffffffffffffffffffffffffffffff021916908373ffffffffffffffffffffffffffffffffffffffff1602179055509050507f7cef6eac7cae9edd114bc8e5b7d80e510af20103e51204aeab65659ba3c259ab82604051610da491906117fe565b60405180910390a150505050505050565b600360009054906101000a900473ffffffffffffffffffffffffffffffffffffffff1673ffffffffffffffffffffffffffffffffffffffff163373ffffffffffffffffffffffffffffffffffffffff161415610e53573373ffffffffffffffffffffffffffffffffffffffff166108fc479081150290604051600060405180830381858888f19350505050158015610e51573d6000803e3d6000fd5b505b565b60606000803373ffffffffffffffffffffffffffffffffffffffff1673ffffffffffffffffffffffffffffffffffffffff168152602001908152602001600020805480602002602001604051908101604052809291908181526020018280548015610edf57602002820191906000526020600020905b815481526020019060010190808311610ecb575b5050505050905090565b610ef161129b565b6000600160008481526020019081526020016000206040518060e0016040529081600082018054610f21906119d8565b80601f0160208091040260200160405190810160405280929190818152602001828054610f4d906119d8565b8015610f9a5780601f10610f6f57610100808354040283529160200191610f9a565b820191906000526020600020905b815481529060010190602001808311610f7d57829003601f168201915b50505050508152602001600182018054610fb3906119d8565b80601f0160208091040260200160405190810160405280929190818152602001828054610fdf906119d8565b801561102c5780601f106110015761010080835404028352916020019161102c565b820191906000526020600020905b81548152906001019060200180831161100f57829003601f168201915b50505050508152602001600282018054611045906119d8565b80601f0160208091040260200160405190810160405280929190818152602001828054611071906119d8565b80156110be5780601f10611093576101008083540402835291602001916110be565b820191906000526020600020905b8154815290600101906020018083116110a157829003601f168201915b50505050508152602001600382015481526020016004820160009054906101000a900460ff16151515158152602001600582015481526020016006820160009054906101000a900473ffffffffffffffffffffffffffffffffffffffff1673ffffffffffffffffffffffffffffffffffffffff1673ffffffffffffffffffffffffffffffffffffffff168152505090506040518060a0016040528082602001518152602001826060015181526020018260800151151581526020018260a0015181526020018260c0015173ffffffffffffffffffffffffffffffffffffffff16815250915050919050565b600080600c905080336040516020016111c39291906117a5565b6040516020818303038152906040528051906020012091505090565b60008383836040516020016111f69392919061176c565b6040516020818303038152906040528051906020012090509392505050565b828054611221906119d8565b90600052602060002090601f016020900481019282611243576000855561128a565b82601f1061125c57805160ff191683800117855561128a565b8280016001018555821561128a579182015b8281111561128957825182559160200191906001019061126e565b5b50905061129791906112e5565b5090565b6040518060a00160405280606081526020016000815260200160001515815260200160008019168152602001600073ffffffffffffffffffffffffffffffffffffffff1681525090565b5b808211156112fe5760008160009055506001016112e6565b5090565b6000611315611310846118a2565b61187d565b90508281526020810184848401111561133157611330611b44565b5b61133c848285611996565b509392505050565b60008135905061135381611bc3565b92915050565b60008135905061136881611bda565b92915050565b600082601f83011261138357611382611b3f565b5b8135611393848260208601611302565b91505092915050565b6000813590506113ab81611bf1565b92915050565b6000602082840312156113c7576113c6611b4e565b5b60006113d584828501611359565b91505092915050565b600080600080600060a086880312156113fa576113f9611b4e565b5b600086013567ffffffffffffffff81111561141857611417611b49565b5b6114248882890161136e565b955050602086013567ffffffffffffffff81111561144557611444611b49565b5b6114518882890161136e565b945050604086013567ffffffffffffffff81111561147257611471611b49565b5b61147e8882890161136e565b935050606061148f8882890161139c565b92505060806114a088828901611344565b9150509295509295909350565b60006114b98383611558565b60208301905092915050565b6114ce81611944565b82525050565b6114e56114e082611944565b611a84565b82525050565b60006114f6826118e3565b6115008185611906565b935061150b836118d3565b8060005b8381101561153c57815161152388826114ad565b975061152e836118f9565b92505060018101905061150f565b5085935050505092915050565b61155281611956565b82525050565b61156181611962565b82525050565b61157081611962565b82525050565b6000611581826118ee565b61158b8185611917565b935061159b8185602086016119a5565b6115a481611b53565b840191505092915050565b60006115ba826118ee565b6115c48185611939565b93506115d48185602086016119a5565b80840191505092915050565b60006115ed600583611939565b91506115f882611b71565b600582019050919050565b6000611610601a83611928565b915061161b82611b9a565b602082019050919050565b600060a08301600083015184820360008601526116438282611576565b91505060208301516116586020860182611746565b50604083015161166b6040860182611549565b50606083015161167e6060860182611558565b50608083015161169160808601826114c5565b508091505092915050565b600060e08301600083015184820360008601526116b98282611576565b915050602083015184820360208601526116d38282611576565b915050604083015184820360408601526116ed8282611576565b91505060608301516117026060860182611746565b5060808301516117156080860182611549565b5060a083015161172860a0860182611558565b5060c083015161173b60c08601826114c5565b508091505092915050565b61174f8161198c565b82525050565b6117666117618261198c565b611aa8565b82525050565b600061177882866115af565b91506117848285611755565b60208201915061179482846114d4565b601482019150819050949350505050565b60006117b0826115e0565b91506117bc8285611755565b6020820191506117cc82846114d4565b6014820191508190509392505050565b600060208201905081810360008301526117f681846114eb565b905092915050565b60006020820190506118136000830184611567565b92915050565b6000602082019050818103600083015261183281611603565b9050919050565b600060208201905081810360008301526118538184611626565b905092915050565b60006020820190508181036000830152611875818461169c565b905092915050565b6000611887611898565b90506118938282611a0a565b919050565b6000604051905090565b600067ffffffffffffffff8211156118bd576118bc611b10565b5b6118c682611b53565b9050602081019050919050565b6000819050602082019050919050565b600081519050919050565b600081519050919050565b6000602082019050919050565b600082825260208201905092915050565b600082825260208201905092915050565b600082825260208201905092915050565b600081905092915050565b600061194f8261196c565b9050919050565b60008115159050919050565b6000819050919050565b600073ffffffffffffffffffffffffffffffffffffffff82169050919050565b6000819050919050565b82818337600083830152505050565b60005b838110156119c35780820151818401526020810190506119a8565b838111156119d2576000848401525b50505050565b600060028204905060018216806119f057607f821691505b60208210811415611a0457611a03611ae1565b5b50919050565b611a1382611b53565b810181811067ffffffffffffffff82111715611a3257611a31611b10565b5b80604052505050565b6000611a468261198c565b91507fffffffffffffffffffffffffffffffffffffffffffffffffffffffffffffffff821415611a7957611a78611ab2565b5b600182019050919050565b6000611a8f82611a96565b9050919050565b6000611aa182611b64565b9050919050565b6000819050919050565b7f4e487b7100000000000000000000000000000000000000000000000000000000600052601160045260246000fd5b7f4e487b7100000000000000000000000000000000000000000000000000000000600052602260045260246000fd5b7f4e487b7100000000000000000000000000000000000000000000000000000000600052604160045260246000fd5b600080fd5b600080fd5b600080fd5b600080fd5b6000601f19601f8301169050919050565b60008160601b9050919050565b7f5f74657874000000000000000000000000000000000000000000000000000000600082015250565b7f5468697320697320612070726976617465206d65737361676521000000000000600082015250565b611bcc81611956565b8114611bd757600080fd5b50565b611be381611962565b8114611bee57600080fd5b50565b611bfa8161198c565b8114611c0557600080fd5b5056fea2646970667358221220280351c582c7f27223711a5cd4c9413f264ee9fd4bd9aa7d3911fe4595d88d5d64736f6c63430008070033",
  "linkReferences": {},
  "deployedLinkReferences": {}
}