{
  "_format": "hh-sol-artifact-1",
  "contractName": "HideIt",
  "sourceName": "contracts/HideIt.sol",
  "abi": [
    {
      "inputs": [],
      "stateMutability": "nonpayable",
      "type": "constructor"
    },
    {
      "anonymous": false,
      "inputs": [
        {
          "indexed": false,
          "internalType": "bytes32",
          "name": "",
          "type": "bytes32"
        }
      ],
      "name": "ReturnSaveMessageId",
      "type": "event"
    },
    {
      "inputs": [
        {
          "internalType": "bytes32",
          "name": "_messageId",
          "type": "bytes32"
        }
      ],
      "name": "getMessage",
      "outputs": [
        {
          "components": [
            {
              "internalType": "string",
              "name": "content",
              "type": "string"
            },
            {
              "internalType": "string",
              "name": "message",
              "type": "string"
            },
            {
              "internalType": "string",
              "name": "messageForFuture",
              "type": "string"
            },
            {
              "internalType": "uint256",
              "name": "fine",
              "type": "uint256"
            },
            {
              "internalType": "bool",
              "name": "isPrivate",
              "type": "bool"
            },
            {
              "internalType": "bytes32",
              "name": "messageId",
              "type": "bytes32"
            },
            {
              "internalType": "address",
              "name": "owner",
              "type": "address"
            }
          ],
          "internalType": "struct Message",
          "name": "",
          "type": "tuple"
        }
      ],
      "stateMutability": "payable",
      "type": "function"
    },
    {
      "inputs": [
        {
          "internalType": "bytes32",
          "name": "_messageId",
          "type": "bytes32"
        }
      ],
      "name": "getMessageContentFromId",
      "outputs": [
        {
          "components": [
            {
              "internalType": "string",
              "name": "message",
              "type": "string"
            },
            {
              "internalType": "uint256",
              "name": "fine",
              "type": "uint256"
            },
            {
              "internalType": "bool",
              "name": "isPrivate",
              "type": "bool"
            },
            {
              "internalType": "bytes32",
              "name": "messageId",
              "type": "bytes32"
            },
            {
              "internalType": "address",
              "name": "owner",
              "type": "address"
            }
          ],
          "internalType": "struct MessageContent",
          "name": "",
          "type": "tuple"
        }
      ],
      "stateMutability": "view",
      "type": "function"
    },
    {
      "inputs": [],
      "name": "getMessageFromAddress",
      "outputs": [
        {
          "internalType": "bytes32[]",
          "name": "",
          "type": "bytes32[]"
        }
      ],
      "stateMutability": "view",
      "type": "function"
    },
    {
      "inputs": [
        {
          "internalType": "string",
          "name": "_content",
          "type": "string"
        },
        {
          "internalType": "string",
          "name": "_message",
          "type": "string"
        },
        {
          "internalType": "string",
          "name": "_messageForFuture",
          "type": "string"
        },
        {
          "internalType": "uint256",
          "name": "_fine",
          "type": "uint256"
        },
        {
          "internalType": "bool",
          "name": "_isPrivate",
          "type": "bool"
        }
      ],
      "name": "saveMessage",
      "outputs": [],
      "stateMutability": "nonpayable",
      "type": "function"
    },
    {
      "inputs": [],
      "name": "test",
      "outputs": [
        {
          "internalType": "bytes32",
          "name": "",
          "type": "bytes32"
        }
      ],
      "stateMutability": "payable",
      "type": "function"
    },
    {
      "inputs": [],
      "name": "withdraw",
      "outputs": [],
      "stateMutability": "payable",
      "type": "function"
    }
  ],
  "bytecode": "0x6080604052600060025534801561001557600080fd5b5033600360006101000a81548173ffffffffffffffffffffffffffffffffffffffff021916908373ffffffffffffffffffffffffffffffffffffffff160217905550611c4c806100666000396000f3fe6080604052600436106100555760003560e01c80630139a2211461005a5780630f05f4621461008a5780633ccfd60b146100b357806351af8760146100bd578063f4680ada146100e8578063f8a8fd6d14610125575b600080fd5b610074600480360381019061006f91906113bf565b610143565b6040516100819190611869565b60405180910390f35b34801561009657600080fd5b506100b160048036038101906100ac91906113ec565b610b65565b005b6100bb610d6b565b005b3480156100c957600080fd5b506100d2610e0b565b6040516100df91906117ea565b60405180910390f35b3480156100f457600080fd5b5061010f600480360381019061010a91906113bf565b610e9f565b60405161011c9190611847565b60405180910390f35b61012d61115f565b60405161013a919061180c565b60405180910390f35b61014b6111cb565b816000600160008381526020019081526020016000206040518060e001604052908160008201805461017c906119e6565b80601f01602080910402602001604051908101604052809291908181526020018280546101a8906119e6565b80156101f55780601f106101ca576101008083540402835291602001916101f5565b820191906000526020600020905b8154815290600101906020018083116101d857829003601f168201915b5050505050815260200160018201805461020e906119e6565b80601f016020809104026020016040519081016040528092919081815260200182805461023a906119e6565b80156102875780601f1061025c57610100808354040283529160200191610287565b820191906000526020600020905b81548152906001019060200180831161026a57829003601f168201915b505050505081526020016002820180546102a0906119e6565b80601f01602080910402602001604051908101604052809291908181526020018280546102cc906119e6565b80156103195780601f106102ee57610100808354040283529160200191610319565b820191906000526020600020905b8154815290600101906020018083116102fc57829003601f168201915b50505050508152602001600382015481526020016004820160009054906101000a900460ff16151515158152602001600582015481526020016006820160009054906101000a900473ffffffffffffffffffffffffffffffffffffffff1673ffffffffffffffffffffffffffffffffffffffff1673ffffffffffffffffffffffffffffffffffffffff1681525050905080606001513410156103ba57600080fd5b836000600160008381526020019081526020016000206040518060e00160405290816000820180546103eb906119e6565b80601f0160208091040260200160405190810160405280929190818152602001828054610417906119e6565b80156104645780601f1061043957610100808354040283529160200191610464565b820191906000526020600020905b81548152906001019060200180831161044757829003601f168201915b5050505050815260200160018201805461047d906119e6565b80601f01602080910402602001604051908101604052809291908181526020018280546104a9906119e6565b80156104f65780601f106104cb576101008083540402835291602001916104f6565b820191906000526020600020905b8154815290600101906020018083116104d957829003601f168201915b5050505050815260200160028201805461050f906119e6565b80601f016020809104026020016040519081016040528092919081815260200182805461053b906119e6565b80156105885780601f1061055d57610100808354040283529160200191610588565b820191906000526020600020905b81548152906001019060200180831161056b57829003601f168201915b50505050508152602001600382015481526020016004820160009054906101000a900460ff16151515158152602001600582015481526020016006820160009054906101000a900473ffffffffffffffffffffffffffffffffffffffff1673ffffffffffffffffffffffffffffffffffffffff1673ffffffffffffffffffffffffffffffffffffffff168152505090508060800151156108fa578060c0015173ffffffffffffffffffffffffffffffffffffffff163373ffffffffffffffffffffffffffffffffffffffff1614610694576040517f08c379a000000000000000000000000000000000000000000000000000000000815260040161068b90611827565b60405180910390fd5b6000600160008881526020019081526020016000206040518060e00160405290816000820180546106c4906119e6565b80601f01602080910402602001604051908101604052809291908181526020018280546106f0906119e6565b801561073d5780601f106107125761010080835404028352916020019161073d565b820191906000526020600020905b81548152906001019060200180831161072057829003601f168201915b50505050508152602001600182018054610756906119e6565b80601f0160208091040260200160405190810160405280929190818152602001828054610782906119e6565b80156107cf5780601f106107a4576101008083540402835291602001916107cf565b820191906000526020600020905b8154815290600101906020018083116107b257829003601f168201915b505050505081526020016002820180546107e8906119e6565b80601f0160208091040260200160405190810160405280929190818152602001828054610814906119e6565b80156108615780601f1061083657610100808354040283529160200191610861565b820191906000526020600020905b81548152906001019060200180831161084457829003601f168201915b50505050508152602001600382015481526020016004820160009054906101000a900460ff16151515158152602001600582015481526020016006820160009054906101000a900473ffffffffffffffffffffffffffffffffffffffff1673ffffffffffffffffffffffffffffffffffffffff1673ffffffffffffffffffffffffffffffffffffffff1681525050905080955050610b5c565b6000600160008881526020019081526020016000206040518060e001604052908160008201805461092a906119e6565b80601f0160208091040260200160405190810160405280929190818152602001828054610956906119e6565b80156109a35780601f10610978576101008083540402835291602001916109a3565b820191906000526020600020905b81548152906001019060200180831161098657829003601f168201915b505050505081526020016001820180546109bc906119e6565b80601f01602080910402602001604051908101604052809291908181526020018280546109e8906119e6565b8015610a355780601f10610a0a57610100808354040283529160200191610a35565b820191906000526020600020905b815481529060010190602001808311610a1857829003601f168201915b50505050508152602001600282018054610a4e906119e6565b80601f0160208091040260200160405190810160405280929190818152602001828054610a7a906119e6565b8015610ac75780601f10610a9c57610100808354040283529160200191610ac7565b820191906000526020600020905b815481529060010190602001808311610aaa57829003601f168201915b50505050508152602001600382015481526020016004820160009054906101000a900460ff16151515158152602001600582015481526020016006820160009054906101000a900473ffffffffffffffffffffffffffffffffffffffff1673ffffffffffffffffffffffffffffffffffffffff1673ffffffffffffffffffffffffffffffffffffffff16815250509050809550505b50505050919050565b60026000815480929190610b7890611a49565b91905055506000610b8c8660025433611195565b905060006040518060e0016040528088815260200187815260200186815260200185815260200184151581526020018381526020013373ffffffffffffffffffffffffffffffffffffffff1681525090506000803373ffffffffffffffffffffffffffffffffffffffff1673ffffffffffffffffffffffffffffffffffffffff16815260200190815260200160002082908060018154018082558091505060019003906000526020600020016000909190919091505580600160008481526020019081526020016000206000820151816000019080519060200190610c72929190611223565b506020820151816001019080519060200190610c8f929190611223565b506040820151816002019080519060200190610cac929190611223565b506060820151816003015560808201518160040160006101000a81548160ff02191690831515021790555060a0820151816005015560c08201518160060160006101000a81548173ffffffffffffffffffffffffffffffffffffffff021916908373ffffffffffffffffffffffffffffffffffffffff1602179055509050507f7cef6eac7cae9edd114bc8e5b7d80e510af20103e51204aeab65659ba3c259ab82604051610d5a919061180c565b60405180910390a150505050505050565b600360009054906101000a900473ffffffffffffffffffffffffffffffffffffffff1673ffffffffffffffffffffffffffffffffffffffff163373ffffffffffffffffffffffffffffffffffffffff161415610e09573373ffffffffffffffffffffffffffffffffffffffff166108fc479081150290604051600060405180830381858888f19350505050158015610e07573d6000803e3d6000fd5b505b565b60606000803373ffffffffffffffffffffffffffffffffffffffff1673ffffffffffffffffffffffffffffffffffffffff168152602001908152602001600020805480602002602001604051908101604052809291908181526020018280548015610e9557602002820191906000526020600020905b815481526020019060010190808311610e81575b5050505050905090565b610ea76112a9565b6000600160008481526020019081526020016000206040518060e0016040529081600082018054610ed7906119e6565b80601f0160208091040260200160405190810160405280929190818152602001828054610f03906119e6565b8015610f505780601f10610f2557610100808354040283529160200191610f50565b820191906000526020600020905b815481529060010190602001808311610f3357829003601f168201915b50505050508152602001600182018054610f69906119e6565b80601f0160208091040260200160405190810160405280929190818152602001828054610f95906119e6565b8015610fe25780601f10610fb757610100808354040283529160200191610fe2565b820191906000526020600020905b815481529060010190602001808311610fc557829003601f168201915b50505050508152602001600282018054610ffb906119e6565b80601f0160208091040260200160405190810160405280929190818152602001828054611027906119e6565b80156110745780601f1061104957610100808354040283529160200191611074565b820191906000526020600020905b81548152906001019060200180831161105757829003601f168201915b50505050508152602001600382015481526020016004820160009054906101000a900460ff16151515158152602001600582015481526020016006820160009054906101000a900473ffffffffffffffffffffffffffffffffffffffff1673ffffffffffffffffffffffffffffffffffffffff1673ffffffffffffffffffffffffffffffffffffffff168152505090506040518060a0016040528082602001518152602001826060015181526020018260800151151581526020018260a0015181526020018260c0015173ffffffffffffffffffffffffffffffffffffffff16815250915050919050565b600080600c905080336040516020016111799291906117b3565b6040516020818303038152906040528051906020012091505090565b60008383836040516020016111ac9392919061177a565b6040516020818303038152906040528051906020012090509392505050565b6040518060e001604052806060815260200160608152602001606081526020016000815260200160001515815260200160008019168152602001600073ffffffffffffffffffffffffffffffffffffffff1681525090565b82805461122f906119e6565b90600052602060002090601f0160209004810192826112515760008555611298565b82601f1061126a57805160ff1916838001178555611298565b82800160010185558215611298579182015b8281111561129757825182559160200191906001019061127c565b5b5090506112a591906112f3565b5090565b6040518060a00160405280606081526020016000815260200160001515815260200160008019168152602001600073ffffffffffffffffffffffffffffffffffffffff1681525090565b5b8082111561130c5760008160009055506001016112f4565b5090565b600061132361131e846118b0565b61188b565b90508281526020810184848401111561133f5761133e611b52565b5b61134a8482856119a4565b509392505050565b60008135905061136181611bd1565b92915050565b60008135905061137681611be8565b92915050565b600082601f83011261139157611390611b4d565b5b81356113a1848260208601611310565b91505092915050565b6000813590506113b981611bff565b92915050565b6000602082840312156113d5576113d4611b5c565b5b60006113e384828501611367565b91505092915050565b600080600080600060a0868803121561140857611407611b5c565b5b600086013567ffffffffffffffff81111561142657611425611b57565b5b6114328882890161137c565b955050602086013567ffffffffffffffff81111561145357611452611b57565b5b61145f8882890161137c565b945050604086013567ffffffffffffffff8111156114805761147f611b57565b5b61148c8882890161137c565b935050606061149d888289016113aa565b92505060806114ae88828901611352565b9150509295509295909350565b60006114c78383611566565b60208301905092915050565b6114dc81611952565b82525050565b6114f36114ee82611952565b611a92565b82525050565b6000611504826118f1565b61150e8185611914565b9350611519836118e1565b8060005b8381101561154a57815161153188826114bb565b975061153c83611907565b92505060018101905061151d565b5085935050505092915050565b61156081611964565b82525050565b61156f81611970565b82525050565b61157e81611970565b82525050565b600061158f826118fc565b6115998185611925565b93506115a98185602086016119b3565b6115b281611b61565b840191505092915050565b60006115c8826118fc565b6115d28185611947565b93506115e28185602086016119b3565b80840191505092915050565b60006115fb600583611947565b915061160682611b7f565b600582019050919050565b600061161e601a83611936565b915061162982611ba8565b602082019050919050565b600060a08301600083015184820360008601526116518282611584565b91505060208301516116666020860182611754565b5060408301516116796040860182611557565b50606083015161168c6060860182611566565b50608083015161169f60808601826114d3565b508091505092915050565b600060e08301600083015184820360008601526116c78282611584565b915050602083015184820360208601526116e18282611584565b915050604083015184820360408601526116fb8282611584565b91505060608301516117106060860182611754565b5060808301516117236080860182611557565b5060a083015161173660a0860182611566565b5060c083015161174960c08601826114d3565b508091505092915050565b61175d8161199a565b82525050565b61177461176f8261199a565b611ab6565b82525050565b600061178682866115bd565b91506117928285611763565b6020820191506117a282846114e2565b601482019150819050949350505050565b60006117be826115ee565b91506117ca8285611763565b6020820191506117da82846114e2565b6014820191508190509392505050565b6000602082019050818103600083015261180481846114f9565b905092915050565b60006020820190506118216000830184611575565b92915050565b6000602082019050818103600083015261184081611611565b9050919050565b600060208201905081810360008301526118618184611634565b905092915050565b6000602082019050818103600083015261188381846116aa565b905092915050565b60006118956118a6565b90506118a18282611a18565b919050565b6000604051905090565b600067ffffffffffffffff8211156118cb576118ca611b1e565b5b6118d482611b61565b9050602081019050919050565b6000819050602082019050919050565b600081519050919050565b600081519050919050565b6000602082019050919050565b600082825260208201905092915050565b600082825260208201905092915050565b600082825260208201905092915050565b600081905092915050565b600061195d8261197a565b9050919050565b60008115159050919050565b6000819050919050565b600073ffffffffffffffffffffffffffffffffffffffff82169050919050565b6000819050919050565b82818337600083830152505050565b60005b838110156119d15780820151818401526020810190506119b6565b838111156119e0576000848401525b50505050565b600060028204905060018216806119fe57607f821691505b60208210811415611a1257611a11611aef565b5b50919050565b611a2182611b61565b810181811067ffffffffffffffff82111715611a4057611a3f611b1e565b5b80604052505050565b6000611a548261199a565b91507fffffffffffffffffffffffffffffffffffffffffffffffffffffffffffffffff821415611a8757611a86611ac0565b5b600182019050919050565b6000611a9d82611aa4565b9050919050565b6000611aaf82611b72565b9050919050565b6000819050919050565b7f4e487b7100000000000000000000000000000000000000000000000000000000600052601160045260246000fd5b7f4e487b7100000000000000000000000000000000000000000000000000000000600052602260045260246000fd5b7f4e487b7100000000000000000000000000000000000000000000000000000000600052604160045260246000fd5b600080fd5b600080fd5b600080fd5b600080fd5b6000601f19601f8301169050919050565b60008160601b9050919050565b7f5f74657874000000000000000000000000000000000000000000000000000000600082015250565b7f5468697320697320612070726976617465206d65737361676521000000000000600082015250565b611bda81611964565b8114611be557600080fd5b50565b611bf181611970565b8114611bfc57600080fd5b50565b611c088161199a565b8114611c1357600080fd5b5056fea2646970667358221220dc8eb3b65ca13ad7b9f40b3e3a76eff1f8feb3a8d6d56de76495453046787c3564736f6c63430008070033",
  "linkReferences": {},
  "deployedLinkReferences": {}
}